S00F000047616D655061642E7372656386
S11300000C943C000C9459000C9459000C94590025
S11300100C9459000C9459000C9459000C945900F8
S11300200C9459000C9459000C9459000C945900E8
S11300300C9459000C9459000C9459000C945900D8
S11300400C9459000C9459000C9459000C945900C8
S11300500C9459000C9459000C9459000C945900B8
S11300600C9459000C9459003132334134353642E2
S1130070373839434530464411241FBECFEFD8E00A
S1130080DEBFCDBF11E0A0E0B1E0E0E5F4E002C0E6
S113009005900D92A230B107D9F721E0A2E0B1E0BA
S11300A001C01D92A533B207E1F70E9461010C94CF
S11300B026020C9400008AB164E086278AB98AB1CA
S11300C058E085278AB98AB140E184278AB98AB180
S11300D030E283278AB98AB120E482278AB98AB1B7
S11300E080588AB984B191E0892784B974B182E0D7
S11300F0782774B97BB167276BB96BB156275BB9A5
S11301005BB145274BB94BB134273BB93BB12327EE
S11301102BB92BB120582BB925B1922795B995B19C
S1130120892785B908958AB18B7F8AB98AB1877F77
S11301308AB98AB18F7E8AB98AB18F7D8AB98AB128
S113014080648AB98AB180688AB984B1816084B9CB
S113015084B1826084B98BB184608BB98BB18860BF
S11301608BB98BB180618BB98BB180628BB98BB148
S11301708F7B8BB98BB18F778BB985B18E7F85B926
S113018085B18D7F85B90895CF93DF9300D000D0DA
S11301901F92CDB7DEB719821B821A8280EF8D833E
S11301A089B182FB992790F98D81892B8D834B9B93
S11301B002C082E001C080E09D81892B8D834C9B2D
S11301C002C084E001C080E09D81892B8D834D9B1A
S11301D002C088E001C080E09D81892B8D838D81E0
S11301E080958A838A81882309F462C00E945B0017
S11301F08FE08C834E9B02C080E101C080E09C8133
S1130200892B8C834F9B02C080E201C080E09C81DB
S1130210892B8C83189B02C080E401C080E09C8100
S1130220892B8C83199B02C080E801C080E09C81EB
S1130230892B8C838C8180958B830E945B008A81BF
S113024080FF02C01A8211C08A8181FF03C081E04D
S11302508A830BC08A8182FF03C082E08A8305C03F
S11302608A8183FF02C083E08A838B8184FF02C07A
S11302701B8211C08B8185FF03C081E08B830BC07F
S11302808B8186FF03C082E08B8305C08B8188232A
S113029014F483E08B83EA81F0E08B81EE0FFF1F7F
S11302A0EE0FFF1FE80FF11DE859FF4FE491E983BA
S11302B089810F900F900F900F900F90DF91CF9145
S11302C0089580E895E20E948801109202010E943C
S11302D093000E94C400809302018091020188234C
S11302E0A1F08091020190E04AE063E071E0C097E0
S11302F00E94F10183E091E00E94A30180E091E07B
S11303000E94A30110920201E4CF10920201E1CFF6
S11303109C01990F440B550B60E472E48FE090E06C
S11303200E94B001215031093093C5002093C400CC
S1130330E1ECF0E0808188618083E2ECF0E0808190
S1130340866080830895FC0107C09091C00095FFEA
S1130350FCCF8093C600319680818111F6CF089539
S1130360052E97FB1EF400940E94C70157FD07D089
S11303700E94CF0107FC03D04EF40C94C7015095A2
S11303804095309521953F4F4F4F5F4F089590957D
S11303908095709561957F4F8F4F9F4F0895A1E28F
S11303A01A2EAA1BBB1BFD010DC0AA1FBB1FEE1FEB
S11303B0FF1FA217B307E407F50720F0A21BB30B36
S11303C0E40BF50B661F771F881F991F1A9469F7B2
S11303D060957095809590959B01AC01BD01CF010E
S11303E00895BB274A3031F4992322F4BDE2909555
S11303F081959F4F0C94FD01BB27FB015527AA272C
S1130400880F991FAA1FA41710F0A41B839550519D
S1130410B9F7A05DAA3308F0A95DA193009779F715
S1130420B111B1931192CB010C941602DC01FC01C1
S1130430672F71917723E1F7329704C07C916D9314
S113044070836291AE17BF07C8F30895F894FFCF85
S10504500A009C
S9030000FC
